:1008DE0057656C636F6D6520546F20576174657238
:1008EE00004C6576656C20496E64696361746F7245
:1008FE0000564143414E5400515541544552004813
:10090E00414C4600332F342046554C4C0046554C36
:0C091E004C3B434C4F53452054415000CB
:070959001209DB7F017E00A3
:10096000E4FDFCC3ED9FEE6480F8EC6480985015C4
:10097000E4FBFA0BBB00010ABA04F8BBFBF50DBDA2
:0509800000010C80DE07
:01098500224F
:0E09CD00D2A5C2A68FB0D2A712095CC2A72283
:0E09DB008FB0C2A5C2A6D2A712095CC2A72285
:06092A008B088A09890A0E
:10093000E4F50BF50CAB08AA09A90A850C82850B16
:1009400083120986FF60113395E0FE1209CD050C74
:08095000E50C70E1050B80DDF0
:01095800227C
:0409B300D295C29483
:1009B7007F387E001209597F0E1209591209DB7F11
:0609C700807E000209DB46
:10080000D290D291D292D293C290C291C292C2930C
:10081000C295C2941209B77BFF7A0879DE12092AC1
:100820007FC07E001209DB7BFF7A0879EF12092A6C
:100830007F2C7E0112096020931A209217209114B8
:100840002090111209B37BFF7A0879FF12092A2040
:1008500093E580FB30931D20921A2091172090146D
:100860001209B37BFF7A09790612092A2092E53032
:1008700093E280F830931D30921A20911720901443
:100880001209B37BFF7A09790D12092A2091E5300C
:1008900092E280F830931D30921A30911720901414
:1008A0001209B37BFF7A09791212092A2090E530E8
:1008B00091E280F830938020920302083720910360
:1008C000020837209003020837C295D2941209B764
:0E08D0007BFF7A09791B12092A3090D880FB31
:030000000209E909
:0C09E900787FE4F6D8FD75810C02080050
:10098600BB010CE58229F582E5833AF583E0225026
:1009960006E92582F8E622BBFE06E92582F8E22270
:0D09A600E58229F582E5833AF583E493228A
:00000001FF
