:1008FB0057656C636F6D6520546F2057617465721B
:10090B00004C6576656C20496E64696361746F7227
:10091B0000564143414E54005155415445520048F5
:10092B00414C4600332F342046554C4C0046554C19
:0C093B004C3B434C4F53452054415000AE
:10080000D293D292D291D290C293C292C291C2900C
:10081000C2941209D07BFF7A0879FB1209477FC086
:100820007E001209F47BFF7A09790C1209477FF4E4
:100830007E0112097D20901C209119209216209390
:1008400013C2941209D07BFF7A09791C1209472040
:1008500090E380FB30901F20911C2092192093166A
:10086000C2941209D07BFF7A09792312094720919B
:10087000E33090E080F830901F30911C20921920D6
:100880009316C2941209D07BFF7A09792A1209477C
:100890002092E33091E080F830901F30911C30922C
:1008A00019209316C2941209D07BFF7A09792F126E
:1008B00009472093E33092E080F830901C30911982
:1008C0003092163093131209D07BFF7A09793812CF
:1008D0000947D2943093E380FB209003020835202F
:1008E0009103020835209203020835309303020871
:0B08F00035209403020835C29480DE1E
:070976001209F47F017E006D
:10097D00E4FDFCC3ED9FEE6480F8EC6480985015A7
:10098D00E4FBFA0BBB00010ABA04F8BBFBF50DBD85
:05099D0000010C80DEEA
:0109A2002232
:0E09E600D2A5C2A68FB0D2A7120979C2A7224D
:0E09F4008FB0C2A5C2A6D2A7120979C2A7224F
:060947008B088A09890AF1
:10094D00E4F50BF50CAB08AA09A90A850C82850BF9
:10095D00831209A3FF60113395E0FE1209E6050C21
:08096D00E50C70E1050B80DDD3
:01097500225F
:1009D0007F387E001209767F0E1209761209F47FA5
:0609E000807E000209F414
:03000000020A02EF
:0C0A0200787FE4F6D8FD75810C02080036
:1009A300BB010CE58229F582E5833AF583E0225009
:1009B30006E92582F8E622BBFE06E92582F8E22253
:0D09C300E58229F582E5833AF583E493226D
:00000001FF
